:1000000055C0000079C0000077C0000075C0000036
:1000100073C0000071C000006FC000006DC0000020
:100020006BC0000069C0000067C0000065C0000030
:1000300063C0000061C000005FC0000010C200008B
:100040005BC0000059C0000057C0000055C0000050
:1000500053C0000051C000004FC000004DC0000060
:100060002DC2000049C0000047C0000045C000008C
:1000700043C0000041C000003FC00000084AD73B19
:100080003BCE016E84BCBFFDC12F3D6C74319ABD67
:1000900056833DDA3D00C77F11BED9E4BB4C3E918B
:1000A0006BAAAABE000000803F00770411241FBE87
:1000B000CFEFCDBFDFE3DEBF8091400080934000F3
:1000C000811105C098ED21E094BF209341008CBBC5
:1000D00028E3A0E0B8E301C01D92AC39B207E1F714
:1000E00010E0C6E5D0E003C02197FE0195D6C535E6
:1000F000D107D1F787D296C683CF29E030E0FC0143
:1001000050E040E0421753077CF460817181A28186
:10011000B381A617B70724F4A083B18362837383E6
:100120004F5F5F4F3296EECF2150310941F708956E
:10013000DC011896ED91FC91848188608483089598
:100140009C012B5C3F4FDC011F96EC911F971E9684
:100150008C91E81730F4E20FF32FF11D808190E0CD
:1001600008958FEF9FEF0895FC01DC01D5969785E8
:100170008685981740F4A90FB11D2C919F5F978732
:10018000822F90E008958FEF9FEF0895FC01868500
:100190009785891B990B0895FC01A585A03258F419
:1001A000A80FB92FB11D55966C9385858F5F8587F4
:1001B00081E090E0089590E080E00895BF92CF92B2
:1001C000DF92EF92FF920F931F93CF93DF937C0107
:1001D0006A01B62EEB010C2F0B1910E00C151D0552
:1001E00028F46991C701D8DF892BA9F7C801DF91ED
:1001F000CF911F910F91FF90EF90DF90CF90BF9024
:10020000089590E080E00895CF93DF938091603867
:1002100090916138909300388093013880916838CC
:1002200090916938909302388093033880916638B2
:10023000909167389093043880930538C0E0D8E3F4
:1002400069918BE098E3A8DF88E3C630D807C1F74F
:10025000DF91CF910895CF93DF93282F30E0E9010C
:10026000C059D14788818F3F09F43FC0A901425A44
:100270005147DA01EC91B0E2EB9FF0011124FC5FF1
:10028000611136C0868390818923A1F4C901845B02
:100290009147DC019C91309769F1983058F5709640
:1002A000E90FF11D9FB7F8948081611126C0877F07
:1002B00080839FBF265C3147F90190819923A9F083
:1002C0008881903409F19038E1F0903171F4DA01CD
:1002D0009C919130A1F4853010F0880F8295909117
:1002E000010A809589238093010ADF91CF910895B7
:1002F0008583C9CFF0E0E0E0D5CF8860D9CF880F03
:10030000EECF1092A006F1CF20E4823009F420E86D
:100310009091920A922349F36FB7F8949091800AD2
:100320009E7F9093800A4091920A30E0209530950C
:1003300050E02423352398ED94BF2093920A9091A6
:100340008E0A90FFFCCF9091800A91609093800A72
:10035000813039F4809150048F77809350046FBFBF
:10036000C4CF809151048F7780935104F8CF61E01E
:100370008AE071DF61E08BE06EDF61E08CE06BDFD3
:1003800061E085E068DF61E086E065DF61E087E0ED
:1003900062CFCF939091193880911A38981761F1F4
:1003A0008BE098E3E1DEC82F823529F410926038A3
:1003B00010926138EFCFDBDFC43459F024F4C2343B
:1003C000A9F0D5DFE7CFC73459F0CF34D1F7CFDF6D
:1003D000F8CF60E08AE03FDF60E085E03CDFDACF25
:1003E00060E08BE038DF60E086E0F8CF60E08CE032
:1003F00032DF60E087E0F2CFCF9108958C5F90917B
:100400000006992371F08093060681E08093080628
:1004100080910B0680FFFCCF809110069091110611
:10042000089589EF92E8089590E0FC01E059F147C2
:1004300020812F3F99F0FC01E25AF147E08130E240
:10044000E39FF0011124FC5F2183845B9147DC0171
:100450008C91E80FF11D8089877F808B08958F93A1
:1004600081E080938D0A8FB78F93EF93FF93E2E93A
:10047000F8E39F9368948FEF0DC0E8948481958191
:10048000805D9C4F84839583885E934080F0848355
:1004900095838FEF9081981B919390819F4F9193BB
:1004A00090819F4F919390819F4F919336F39F91AD
:1004B000FF91EF918F918FBF8F9118951F920F929F
:1004C0000FB60F9211241F932F933F934F935F9377
:1004D0006F937F938F939F93AF93BF93CF93DF934C
:1004E000EF93FF93C3E1D8E3E881F981838586FF29
:1004F00056C080FF41C0158581FF38C08E8188239A
:1005000059F080910A3880935000EB85FC85309734
:1005100019F08E8190E009951C831D821886E9856B
:10052000FA85309709F009958D81882319F183E0C8
:100530009091500090930A38917090935000E88108
:10054000F9818287FF91EF91DF91CF91BF91AF91B8
:100550009F918F917F916F915F914F913F912F91DB
:100560001F910F900FBE0F901F9018951C831E8235
:100570001F82DDCF86E0DCCF80910A388093500067
:10058000EB85FC85309729F08E81882311F090E06F
:1005900009951E821D821F82188682E0D0CF87FFB8
:1005A0002FC081FF1EC0887139F08A8183FF04C08B
:1005B0001D82877F8A83F1CF8B818F5F8B838A81B6
:1005C00088608A83A8858D81A81738F7AC0FBD2F66
:1005D000B11D1D968C91858788858F5F888783E004
:1005E000AECF8585EE81E03258F4EC0FFD2FF11D82
:1005F00085A78E818F5F8E83803288F386E09FCFC0
:1006000080E09DCF88ED90E084BF90936100E0E0B2
:10061000F6E083E582838DE0858380E2838381E059
:100620008083109202028093030A9EEF9093260A21
:100630009093270A9BE09093000AE0E8FAE02DEF00
:1006400031E026A737A7118290E89283848781E161
:100650008083789484E091E080931C3890931D38D7
:100660008091153881FD17C082FD15C0809101026F
:1006700084FF21C186E08093060480911538846050
:1006800080931538E0911338F091143880E1848715
:10069000168681EE818789EC91E080931E389093D5
:1006A0001F388AE0C1DE8BE0BFDE8CE0BDDE85E076
:1006B000BBDE86E0B9DE87E0B7DE60E08AE0CBDD56
:1006C00061E08BE0C8DD61E08CE0C5DD60E085E0E5
:1006D000C2DD61E086E0BFDD61E087E0BCDD82E095
:1006E0008DDE9250809368389093693883E086DE7F
:1006F000EC01D250C0936638D09367386091683867
:1007000070916938072E000C880B990B67D26B012A
:100710007C01BE01DD0F880B990B60D2A701960109
:100720006FD120E030E044E353E410D320ED3FE00C
:1007300049E450E4B8D120E030E04AE754E406D37D
:1007400020E030E044EB53E4AED120E030E04AEF6B
:1007500053E4E3D010D260936438709365381092FC
:10076000603810926138C8EED3E00EE718E34AE62D
:10077000E42E48E3F42E82E041DE9250F8018193AA
:1007800091938F0183E03ADE9250F7018193919328
:100790007F0183EF91E00197F1F700C0000098E33B
:1007A0000239190741F78EE798E3A7DC8AE698E358
:1007B000A4DC609186387091873880918838909158
:1007C0008938860F971F97FD019695958795809399
:1007D00068389093693860917238709173382091BD
:1007E000743830917538620F731F77FF02C06F5FE6
:1007F0007F4F8B01159507950093663810936738E6
:10080000BC01990F880B990BE9D16B017C01B801F0
:10081000110F880B990BE2D1A7019601F1D020E0CE
:1008200030E044E353E492D220ED3FE049E450E469
:100830003AD120E030E04AE754E488D220E030E0CA
:1008400044EB53E430D120E030E04AEF53E465D08C
:1008500092D16B0140916438509165389B01241B03
:10086000350B8091623890916338C816D90624F40C
:10087000C0926238D092633880916038909161382C
:10088000B90137FF04C066277727621B730B653FEA
:10089000714074F0609162387091633837FF0FC017
:1008A0009E01241B350BA601461B570B240F351F39
:1008B000820F931F0DC083E080932604DECE461B7B
:1008C000570B9601285E3340240F351F821B930B74
:1008D0008093603890936138C0926438D0926538C4
:1008E00083EF91E00197F1F700C000003ECFEBE00D
:1008F000F8E31282138288EE93E0A0E0B0E08483F4
:100900009583A683B7838CE29EE88083918380E100
:1009100098E08087918708955058BB27AA270ED06A
:10092000D4C1C5D130F0CAD120F031F49F3F11F4C9
:100930001EF495C10EF4E095E7FB8BC1E92FD6D1EB
:1009400080F3BA17620773078407950718F071F4EC
:100950009EF5EEC10EF4E0950B2EBA2FA02D0B01E3
:10096000B90190010C01CA01A0011124FF27591BF4
:1009700099F0593F50F4503E68F11A16F040A22FFA
:10098000232F342F4427585FF3CF4695379527956B
:10099000A795F0405395C9F77EF41F16BA0B620B6A
:1009A000730B840BBAF09150A1F0FF0FBB1F661FB1
:1009B000771F881FC2F70EC0BA0F621F731F841FF4
:1009C00048F4879577956795B795F7959E3F08F01A
:1009D000B3CF9395880F08F09927EE0F97958795D9
:1009E000089565D158F080E891E009F49EEF66D152
:1009F00028F040E851E059F45EEF09C030C198C1D9
:100A0000E92FE07873D168F3092E052AC1F3261780
:100A100037074807590738F00E2E07F8E02569F028
:100A2000E025E0640AC0EF6307F8009407FADB01F1
:100A3000B9019D01DC01CA01AD01EF9343D045D15D
:100A40000AD05F91552331F02BED3FE049E450FD92
:100A500049EC63CF0895DF93DD27B92FBF7740E8D6
:100A60005FE31616170648075B0710F4D92F67D106
:100A70009F938F937F936F93CCD1ECE7F0E0F2D00C
:100A800024D12F913F914F915F916CD1DD2349F09B
:100A90009058A2EA2AED3FE049EC5FE3D0785D2769
:100AA0004DDFDF9112C10CD010C108D140F0FFD052
:100AB00030F021F45F3F19F0CCC051113AC1CFC0E2
:100AC00015D198F39923C9F35523B1F3951B550B11
:100AD000BB27AA2762177307840738F09F5F5F4F11
:100AE000220F331F441FAA1FA9F333D00E2E3AF052
:100AF000E0E830D091505040E695001CCAF729D06C
:100B0000FE2F27D0660F771F881FBB1F26173707BA
:100B10004807AB07B0E809F0BB0B802DBF01FF27EA
:100B200093585F4F2AF09E3F510568F092C001C173
:100B30005F3FECF3983EDCF3869577956795B79524
:100B4000F7959F5FC9F7880F911D9695879597F93F
:100B50000895E1E0660F771F881FBB1F62177307B8
:100B60008407BA0720F0621B730B840BBA0BEE1FCD
:100B700088F7E095089504D06894B111DAC008951B
:100B8000BDD088F09F5790F0B92F9927B751A0F0AA
:100B9000D1F0660F771F881F991F1AF0BA95C9F711
:100BA00012C0B13081F0C4D0B1E00895C1C0672F48
:100BB000782F8827B85F39F0B93FCCF386957795C1
:100BC0006795B395D9F73EF49095809570956195AA
:100BD0007F4F8F4F9F4F0895E89409C097FB3EF4D5
:100BE00090958095709561957F4F8F4F9F4F99237A
:100BF000A9F0F92F96E9BB279395F69587957795F8
:100C00006795B795F111F8CFFAF4BB0F11F460FFB7
:100C10001BC06F5F7F4F8F4F9F4F16C0882311F00F
:100C200096E911C0772321F09EE8872F762F05C023
:100C3000662371F096E8862F70E060E02AF09A95BE
:100C4000660F771F881FDAF7880F9695879597F9B3
:100C5000089597F99F6780E870E060E008959FEF3E
:100C600080EC0895DF93CF931F930F93FF92EF9241
:100C7000DF927B018C01689405C0DA2EEF0172D0FF
:100C8000FE01E894A5912591359145915591AEF3DA
:100C9000EF0154DEFE019701A801DA9479F7DF90A5
:100CA000EF90FF900F911F91CF91DF910895002455
:100CB0000A941616170618060906089500240A94C1
:100CC00012161306140605060895092E0394000C47
:100CD00011F4882352F0BB0F40F4BF2B11F460FFD6
:100CE00004C06F5F7F4F8F4F9F4F089557FD9058FF
:100CF000440F551F59F05F3F71F04795880F97FBE0
:100D0000991F61F09F3F79F0879508951216130699
:100D10001406551FF2CF4695F1DF08C016161706C8
:100D20001806991FF1CF86957105610508940895FD
:100D3000E894BB2766277727CB0197F908959B0195
:100D4000AC0160E070E080E89FE3ADCE0BD0BDCF9A
:100D5000AEDF28F0B3DF18F0952309F07ACF7FCF0C
:100D60001124E7CFC3DFA0F3959FD1F3950F50E097
:100D7000551F629FF001729FBB27F00DB11D639F4D
:100D8000AA27F00DB11DAA1F649F6627B00DA11DF3
:100D9000661F829F2227B00DA11D621F739FB00D99
:100DA000A11D621F839FA00D611D221F749F332709
:100DB000A00D611D231F849F600D211D822F762FA2
:100DC0006A2F11249F5750408AF0E1F088234AF09F
:100DD000EE0FFF1FBB1F661F771F881F91505040EB
:100DE000A9F79E3F510570F034CFA3CF5F3FECF3DE
:100DF000983EDCF3869577956795B795F795E795D7
:100E00009F5FC1F7FE2B880F911D9695879597F9E7
:100E100008959B01AC019ACFEE0FFF1F0590F4914E
:080E2000E02D0994F894FFCFC6
:100E280000000000CC00DE0001019800C600B400FC
:100E3800A0001010800000000010101040400000BA
:100E48000000100004050607050403020100000164
:100E58000203010203000000000001010101010179
:100E68000202020200000000102040802010080446
:0A0E7800020101020408020408014F
:00000001FF
