:020000040000FA
:100000000C9458000C9480000C9480000C94800098
:100010000C9480000C9480000C9480000C94800060
:100020000C9480000C9480000C9480000C94800050
:100030000C9480000C9480000C9480000C94800040
:100040000C9498030C9480000C9408040C94E20324
:100050000C9480000C9480000C9480000C94800020
:100060000C943A040C948000000000002500280045
:100070002B00040404040404040402020202020229
:10008000030303030303010204081020408001025C
:1000900004081020010204081020000000080002DB
:1000A00001000003040700000000000000005905E3
:1000B00011241FBECFEFD8E0DEBFCDBF11E0A0E01E
:1000C000B1E0EEE4F1E102C005900D92A832B10773
:1000D000D9F723E0A8E2B1E001C01D92A731B20731
:1000E000E1F710E0C8E5D0E004C02197FE010E94CE
:1000F0009F08C735D107C9F70E9492050C94A5083F
:100100000C94000090E0FC01E656FF4F2491FC01A6
:10011000EA57FF4F3491FC01EE58FF4FE491EE2374
:10012000C9F0222339F0233001F1A8F4213019F16C
:10013000223029F1F0E0EE0FFF1FE859FF4FA591A3
:10014000B4918FB7F894EC91611126C030953E239D
:100150003C938FBF08952730A9F02830C9F0243090
:1001600049F7809180008F7D03C0809180008F7758
:1001700080938000DFCF84B58F7784BDDBCF84B5DB
:100180008F7DFBCF8091B0008F778093B000D2CF6E
:100190008091B0008F7DF9CF3E2BDACF3FB7F89436
:1001A00080916A0290916B02A0916C02B0916D02F5
:1001B00026B5A89B05C02F3F19F00196A11DB11DC2
:1001C0003FBFBA2FA92F982F8827BC01CD01620FFE
:1001D000711D811D911D42E0660F771F881F991FB9
:1001E0004A95D1F708958091E1019091E001891B32
:1001F000990B089508950895AF92BF92CF92DF9220
:10020000EF92FF920F931F93CF93DF936C017B01CB
:100210008B01040F151FEB015E01AE18BF08C0175C
:10022000D10759F06991D601ED91FC910190F081CF
:10023000E02DC6010995892B79F7C501DF91CF9192
:100240001F910F91FF90EF90DF90CF90BF90AF90F4
:100250000895FC01538D448D252F30E0842F90E0CC
:10026000821B930B541710F0CF96089501970895B1
:10027000FC01918D828D981761F0A28DAE0FBF2F7A
:10028000B11D5D968C91928D9F5F9F73928F90E0D0
:1002900008958FEF9FEF0895FC01918D828D98173F
:1002A00031F0828DE80FF11D858D90E008958FEF7C
:1002B0009FEF0895FC01918D228D892F90E0805C45
:1002C0009F4F821B91098F73992708958EE692E0C4
:1002D0000E945A0121E0892B09F420E0822F089521
:1002E00080E090E0892B29F00E94660181110C9436
:1002F00000000895FC01A48DA80FB92FB11DA35AC9
:10030000BF4F2C91848D90E001968F739927848F35
:10031000A689B7892C93A089B1898C918370806458
:100320008C93938D848D981306C00288F389E02DF9
:1003300080818F7D80830895EF92FF920F931F93AA
:10034000CF93DF93EC0181E0888F9B8D8C8D981388
:100350001AC0E889F989808185FF15C09FB7F89494
:10036000EE89FF896083E889F989808183708064E0
:1003700080839FBF81E090E0DF91CF911F910F912B
:10038000FF90EF900895F62E0B8D10E00F5F1F4F3A
:100390000F731127E02E8C8D8E110CC00FB607FC49
:1003A000FACFE889F989808185FFF5CFCE010E94D7
:1003B0007A01F1CFEB8DEC0FFD2FF11DE35AFF4FCA
:1003C000F0829FB7F8940B8FEA89FB898081806265
:1003D000CFCFCF93DF93EC01888D8823B9F0AA8922
:1003E000BB89E889F9898C9185FD03C0808186FDF0
:1003F0000DC00FB607FCF7CF8C9185FFF2CF80813F
:1004000085FFEDCFCE010E947A01E9CFDF91CF9138
:10041000089520914901260F3327331F21323105DA
:10042000ECF42091BA01FC0190E080E0243069F006
:1004300082E00895A09149012191AC01475D5E4F92
:10044000A40FB52FB11D2C930196861798F38091B8
:100450004901680F6093490180E0089581E00895A3
:100460001092BA0181E08093B9011092B40161E069
:1004700082E10E94820061E083E10E948200E9EB58
:10048000F0E080818E7F808380818D7F808388E40F
:100490008093B80085E48093BC000895CF93DF93E8
:1004A00091E0909328018823B9F0C091B800D091D1
:1004B000BA008091BC008A7B8093BC0060E082E13E
:1004C0000E94820060E083E10E9482000E9430026C
:1004D000D093BA00C093B800DF91CF9108950895EA
:1004E000E091E0018091E101E81730F4F0E0E054A0
:1004F000FE4F808190E008958FEF9FEF08959091D7
:10050000E0018091E1012FEF3FEF981748F4E92FC8
:10051000F0E0E054FE4F208130E09F5F9093E001D7
:10052000C9010895CF92DF92EF92FF920F931F932C
:10053000CF93DF937C01CB018A01209170012223AC
:1005400089F0EB016B01C40ED51ECC15DD0569F0F9
:100550006991D701ED91FC910190F081E02DC701E7
:100560000995F3CF642F0E940902C801DF91CF9152
:100570001F910F91FF90EF90DF90CF900895CF9350
:10058000DF931F92CDB7DEB76983209170012223DC
:10059000F9F020919301203258F021E030E0FC0185
:1005A0003383228390E080E00F90DF91CF91089514
:1005B00080917101E82FF0E0EE58FE4F9981908311
:1005C0008F5F809371018093930181E090E0ECCF85
:1005D00061E0CE0101960E940902F7CF90E080E031
:1005E00008958F929F92AF92BF920F931F93CF93D4
:1005F000DF93CDB7DEB7A1970FB6F894DEBF0FBE7D
:10060000CDBF19A2423008F44AE08E010F5D1F4FA2
:10061000842E912CB12CA12CA50194010E947D085F
:10062000E62FB901CA01EA3044F5E05DD801EE9346
:100630008D01232B242B252B79F790E080E0109758
:1006400069F0FD0101900020E9F73197AF014A1BE5
:100650005B0BBD018EE692E00E94FC00A1960FB6F6
:10066000F894DEBF0FBECDBFDF91CF911F910F91E8
:10067000BF90AF909F908F900895E95CD7CFCF92B5
:10068000DF92EF92FF92CF93DF936B017C016DE2DB
:100690008EE692E00E949C01EC0166277727CB0151
:1006A0006C197D098E099F094AE00E94F1028C0FA6
:1006B0009D1FDF91CF91FF90EF90DF90CF90089535
:1006C00085ED8093BC008091BC019091BD01A0910B
:1006D000BE01B091BF010796A11DB11D23E0B695E3
:1006E000A795979587952A95D1F72091BC0024FD71
:1006F00003C01092BA0108954091BC015091BD0110
:100700006091BE017091BF01452B462B472B69F3C9
:100710000097A105B10541F02AE22A95F1F700C042
:100720000197A109B109E1CF8091BB010C944E0260
:100730001F920F920FB60F9211242F933F938F9316
:100740009F93AF93BF938091660290916702A091AF
:100750006802B09169023091650223E0230F2D37C2
:1007600058F50196A11DB11D209365028093660284
:1007700090936702A0936802B093690280916A0225
:1007800090916B02A0916C02B0916D020196A11D37
:10079000B11D80936A0290936B02A0936C02B09398
:1007A0006D02BF91AF919F918F913F912F910F90CB
:1007B0000FBE0F901F90189526E8230F0296A11DDB
:1007C000B11DD2CF1F920F920FB60F9211242F930B
:1007D0003F934F935F936F937F938F939F93AF93C9
:1007E000BF93EF93FF938EE692E00E947A01FF9110
:1007F000EF91BF91AF919F918F917F916F915F9199
:100800004F913F912F910F900FBE0F901F90189511
:100810001F920F920FB60F9211242F938F939F93D5
:10082000EF93FF93E0917E02F0917F028081E0914F
:100830008402F091850282FD1BC090818091870225
:100840008F5F8F7320918802821741F0E0918702B9
:10085000F0E0E259FD4F958F80938702FF91EF9171
:100860009F918F912F910F900FBE0F901F90189511
:100870008081F4CF1F920F920FB60F9211242F9305
:100880003F934F935F936F937F938F939F93AF9318
:10089000BF93EF93FF938091B900887F803609F46E
:1008A0004AC0F0F5883209F4A7C018F5803109F480
:1008B0009BC0B8F4882309F4F9C0883009F494C0C7
:1008C000FF91EF91BF91AF919F918F917F916F9128
:1008D0005F914F913F912F910F900FBE0F901F90FE
:1008E0001895883109F488C0803251F78093B80197
:1008F00014C0803409F49DC040F48033B9F38833C8
:10090000F9F68093B80185ECB0C0803509F485C054
:10091000883509F496C0883499F60E946003D0CFD8
:10092000883909F48CC038F5883729F050F48836B6
:1009300011F0803729F683E08093BA0110926B01A1
:1009400057C0883809F47BC0803919F0803809F025
:10095000B7CF80916B01803208F071C0E0916B01DC
:1009600081E08E0F80936B018091BB00F0E0E55B2E
:10097000FE4F80833DC0803B39F0E0F4803A09F4BB
:1009800079C0883A09F09CCF84E08093BA01109234
:100990004A0110924901E0916E01F0916F010995B1
:1009A0008091490181110FC081E08093490110922B
:1009B000290109C0803C09F4A6CF883C09F4A3CFE3
:1009C000883B09F07DCFE0914A0181E08E0F809352
:1009D0004A01F0E0E75DFE4F80818093BB0090917B
:1009E0004A018091490129C08091B5018093BB00E3
:1009F00085EC8093BC0064CF9091B7018091B601E3
:100A0000981758F5E091B70181E08E0F8093B701F8
:100A1000F0E0EC56FE4F8081E9CFE091B70181E034
:100A20008E0F8093B7018091BB00F0E0EC56FE4F33
:100A300080839091B7018091B6019817C8F285E83C
:100A4000D8CFE091B70181E08E0F8093B7018091FC
:100A5000BB00F0E0EC56FE4F80838091B90181111C
:100A60005CCF81E08093B40184EA8093BC00109253
:100A7000BA0126CF85EC8093BC001092BA01809118
:100A80006B01803230F4E0916B01F0E0E55BFE4FEA
:100A9000108260916B0170E0E0916C01F0916D014A
:100AA0008BE491E0099510926B010ACF1092B80186
:100AB00034CFEEE6F2E01382128288EE93E0A0E0FB
:100AC000B0E084839583A683B78324E031E031834B
:100AD000208325EC30E03587248724EC30E037870D
:100AE000268720EC30E0318B208B21EC30E0338BFB
:100AF000228B22EC30E0358B248B26EC30E0378BD8
:100B0000268B118E128E138E148EEBE0F3E013827F
:100B1000128284839583A683B78386E191E09183D3
:100B200080830895CF93DF9300D000D000D0CDB75D
:100B3000DEB7789484B5826084BD84B5816084BD5D
:100B400085B5826085BD85B5816085BD80916E006B
:100B5000816080936E00109281008091810082609C
:100B600080938100809181008160809381008091D9
:100B700080008160809380008091B10084608093C8
:100B8000B1008091B00081608093B00080917A00C4
:100B9000846080937A0080917A00826080937A00EA
:100BA00080917A00816080937A0080917A008068D9
:100BB00080937A001092C1001092E0011092E1013E
:100BC00010927101109293010E9430028AEF90E01E
:100BD00090936F0180936E018BEF90E090936D0185
:100BE00080936C01E0917E02F0917F0282E080832D
:100BF000E0917A02F0917B021082E0917C02F09108
:100C00007D0280E1808310928602E0918202F09161
:100C1000830286E08083E0918002F09181028081EE
:100C200080618083E0918002F09181028081886000
:100C30008083E0918002F0918102808180688083CE
:100C4000E0918002F091810280818F7D808382E635
:100C500092E0E2EEF1E011928E179F07E1F711E0CA
:100C600055245A9465E0462E45EE742E55EC652EBB
:100C70008091640222EEA22E21E0B22E811193C156
:100C800000E032E0F32E1093700100939201109275
:100C90007101109293010E94CE004B015C01809182
:100CA000BA01811162C0F092BA011093B901509259
:100CB000B8011092B7011092B6011092B50190914F
:100CC000B501802F880F892B8093B5018091B401E5
:100CD000813009F09AC01092B4010E94CE004B01FD
:100CE0005C018091B5018093BB008091BC01909123
:100CF000BD01A091BE01B091BF01892B8A2B8B2B26
:100D0000A1F00E94CE002091BC013091BD01409124
:100D1000BE015091BF01681979098A099B092617FC
:100D200037074807590708F441C08091BC0083FD8C
:100D3000D8CF6092BC000E94CE004B015C01809134
:100D4000BA01823009F464C08091B8018F3F09F480
:100D500081C08091B801803209F47EC08091B801D1
:100D6000803309F07BC083E026C08091BC01909164
:100D7000BD01A091BE01B091BF01892B8A2B8B2BA5
:100D800009F48DCF0E94CE002091BC013091BD01AD
:100D90004091BE015091BF01681979098A099B09E8
:100DA000261737074807590708F079CF8091BB010C
:100DB0000E944E0285E010927101109293011092F0
:100DC000700181110FC080916202909163029C01B9
:100DD0002F5F3F4F30936302209362028E519E4FEC
:100DE000FC0100830F5F003809F04DCF10936402BF
:100DF00080E090E0892B09F43BCF0E9466018823B4
:100E000009F432CF0E9400002FCF7092BC0093CF24
:100E10008091BC019091BD01A091BE01B091BF0134
:100E2000892B8A2B8B2B09F48ACF0E94CE0020912C
:100E3000BC013091BD014091BE015091BF016819C4
:100E400079098A099B09261737074807590708F0C7
:100E500076CFACCF80E0AFCF82E0ADCF84E0ABCF38
:100E60008091BC019091BD01A091BE01B091BF01E4
:100E7000892B8A2B8B2B09F4AAC00E94CE002091CB
:100E8000BC013091BD014091BE015091BF016C1970
:100E90007D098E099F09261737074807590708F06B
:100EA00096C08091BB010E944E02312C1092E0014D
:100EB0003092E101332009F476C0CE0101966C0135
:100EC000F12CE12C8091E0013816A1F196E0E916B1
:100ED000F104A1F18BE093E00E947F02F60181937F
:100EE0006F01FFEFEF1AFF0AEDCF7092BC00BBC09D
:100EF0008091BC019091BD01A091BE01B091BF0154
:100F0000892B8A2B8B2B09F4B2C00E94CE00209132
:100F1000BC013091BD014091BE015091BF016C19DF
:100F20007D098E099F09261737074807590708F0DA
:100F30009EC0B7CF25E0E216F104ACF1CB80DC8097
:100F4000DC24CD24DC24ED80FE80FE24EF24FE246E
:100F5000602F70E090E080E04AE00E94F1026CE2D5
:100F60008EE692E00E949C01B6010D2C000C880BCD
:100F7000990BD7FE95C00E943F036CE28EE692E08B
:100F80000E949C01B7010F2C000C880B990BF7FEF7
:100F90008BC00E943F0342E050E064E271E08EE6C5
:100FA00092E00E94FC002091620230916302C50130
:100FB000825E9140821793070CF07AC0F50101918F
:100FC0005F01002381F30E94CE006B017C018091C0
:100FD000BA01811145CF1093BA011093B901509213
:100FE000B8011092B7014092B6011093B5019091EB
:100FF000B501802F880F892B8093B5018091B401B2
:10100000813009F072CF1092B4010E94CE006B01C2
:101010007C018091B5018093BB008091BC019091CF
:10102000BD01A091BE01B091BF01892B8A2B8B2BF2
:10103000A1F00E94CE002091BC013091BD014091F1
:10104000BE015091BF016C197D098E099F092617B9
:1010500037074807590708F424CF8091BC0083FD67
:10106000D8CF6092BC000E94CE006B017C018091C1
:10107000BA01813009F43CCF8091B70196E0392E56
:10108000863010F43090B701E4E9F1E0A0ECB1E073
:1010900080E0831509F40ACF91919D938F5FF9CF7A
:1010A0004AE00E94F10269CF4AE00E94F10273CF48
:1010B0000E94CE004B015C0184E6C82ED12CE12CAD
:1010C000F12C0E94CE00681979098A099B09683EB3
:1010D000734081059105A8F381E0C81AD108E108A1
:1010E000F10898EE890E93E0991EA11CB11CC11461
:1010F000D104E104F10429F77BCEA1E21A2EAA1B48
:10110000BB1BFD010DC0AA1FBB1FEE1FFF1FA217B7
:10111000B307E407F50720F0A21BB30BE40BF50BB4
:10112000661F771F881F991F1A9469F7609570953D
:10113000809590959B01AC01BD01CF010895EE0F04
:10114000FF1F0590F491E02D0994F894FFCF000063
:1011500000009C01FC002901E9015A0138014C0101
:1011600000000000BF029202EE026F02F3007F0255
:0611700070020D0A0000F0
:107E0000112484B714BE81FFF0D085E080938100F7
:107E100082E08093C00088E18093C10086E0809377
:107E2000C20080E18093C4008EE0C9D0259A86E02C
:107E300020E33CEF91E0309385002093840096BBD3
:107E4000B09BFECF1D9AA8958150A9F7CC24DD24C4
:107E500088248394B5E0AB2EA1E19A2EF3E0BF2EE7
:107E6000A2D0813461F49FD0082FAFD0023811F036
:107E7000013811F484E001C083E08DD089C08234E0
:107E800011F484E103C0853419F485E0A6D080C0E4
:107E9000853579F488D0E82EFF2485D0082F10E0AE
:107EA000102F00270E291F29000F111F8ED06801E7
:107EB0006FC0863521F484E090D080E0DECF843638
:107EC00009F040C070D06FD0082F6DD080E0C81688
:107ED00080E7D80618F4F601B7BEE895C0E0D1E017
:107EE00062D089930C17E1F7F0E0CF16F0E7DF06D8
:107EF00018F0F601B7BEE89568D007B600FCFDCFD4
:107F0000A601A0E0B1E02C9130E011968C91119780
:107F100090E0982F8827822B932B1296FA010C0160
:107F200087BEE89511244E5F5F4FF1E0A038BF0790
:107F300051F7F601A7BEE89507B600FCFDCF97BE46
:107F4000E89526C08437B1F42ED02DD0F82E2BD052
:107F50003CD0F601EF2C8F010F5F1F4F84911BD097
:107F6000EA94F801C1F70894C11CD11CFA94CF0C13
:107F7000D11C0EC0853739F428D08EE10CD085E9AC
:107F80000AD08FE07ACF813511F488E018D01DD067
:107F900080E101D065CF982F8091C00085FFFCCF94
:107FA0009093C60008958091C00087FFFCCF809118
:107FB000C00084FD01C0A8958091C6000895E0E648
:107FC000F0E098E1908380830895EDDF803219F02E
:107FD00088E0F5DFFFCF84E1DECF1F93182FE3DFCA
:107FE0001150E9F7F2DF1F91089580E0E8DFEE27F6
:047FF000FF270994CA
:027FFE00040479
:00000001FF
