:1000000055C0000084C0000082C0000080C0000015
:100010007EC000007CC000007AC0000078C00000F4
:1000200076C0000074C0000072C0000070C0000004
:100030006EC000006CC000006AC0000040C200003A
:1000400066C0000064C0000062C0000060C0000024
:100050005EC000005CC000005AC0000058C0000034
:100060005DC2000054C0000052C0000050C000003B
:100070004EC000004CC000004AC00000084AD73BF8
:100080003BCE016E84BCBFFDC12F3D6C74319ABD67
:1000900056833DDA3D00C77F11BED9E4BB4C3E918B
:1000A0006BAAAABE000000803F00E00411241FBE1E
:1000B000CFEFCDBFDFE3DEBF8091400080934000F3
:1000C000811105C098ED21E094BF209341008CBBC5
:1000D00018E3A0E0B8E3E6E8FFE002C005900D9267
:1000E000A230B107D9F728E3A2E0B8E301C01D921E
:1000F000AA39B207E1F710E0C6E5D0E003C02197C6
:10010000FE01FDD6C535D107D1F7ACD20DC778CFEA
:1001100029E030E0FC0150E040E0421753077CF456
:1001200060817181A281B381A617B70724F4A083EF
:10013000B183628373834F5F5F4F3296EECF21505E
:10014000310941F708959FB7F89488E08093840AB5
:1001500080918E0A81FFFCCF80918D0AE091A20AE6
:10016000F091A30A209190383091913840919238C3
:10017000509193389FBF80FF07C0E730F10520F40E
:100180002F5F3F4F4F4F5F4FBF0176956795CF0170
:10019000860F911DE62FE695E695762F72957F7076
:1001A000E71BFF0B67FD3196E80FF91FA0E3B3E0F3
:1001B0009CD66E0F7F1F811D911D0895DC0118963E
:1001C000ED91FC9184818860848308959C012B5C6F
:1001D0003F4FDC011F96EC911F971E968C91E817FC
:1001E00030F4E20FF32FF11D808190E008958FEF3E
:1001F0009FEF0895FC01DC01D596978586859817B9
:1002000040F4A90FB11D2C919F5F9787822F90E03A
:1002100008958FEF9FEF0895FC0186859785891BD0
:10022000990B0895FC01A585A03258F4A80FB92FA9
:10023000B11D55966C9385858F5F858781E090E031
:10024000089590E080E00895BF92CF92DF92EF9200
:10025000FF920F931F93CF93DF937C016A01B62E19
:10026000EB010C2F0B1910E00C151D0528F46991FA
:10027000C701D8DF892BA9F7C801DF91CF911F9162
:100280000F91FF90EF90DF90CF90BF90089590E096
:1002900080E00895CF93C091623860916338E2E0C6
:1002A000F8E36083C1838DE098E3BCDF6C2F8DE0C1
:1002B00098E3CF91B7CFCF93DF93282F30E0E901B8
:1002C000CC58D04788818F3F09F43FC0A9014E59CF
:1002D0005047DA01EC91B0E2EB9FF0011124FC5F92
:1002E000611136C0868390818923A1F4C901805BA6
:1002F0009047DC019C91309769F1983058F57096E1
:10030000E90FF11D9FB7F8948081611126C0877FA6
:1003100080839FBF225C3047F90190819923A9F027
:100320008881903409F19038E1F0903171F4DA016C
:100330009C919130A1F4853010F0880F82959091B6
:10034000010A809589238093010ADF91CF91089556
:100350008583C9CFF0E0E0E0D5CF8860D9CF880FA2
:10036000EECF1092A006F1CF20E4823009F420E80D
:100370009091920A922349F36FB7F8949091800A72
:100380009E7F9093800A4091920A30E020953095AC
:1003900050E02423352398ED94BF2093920A909146
:1003A0008E0A90FFFCCF9091800A91609093800A12
:1003B000813039F4809150048F77809350046FBF5F
:1003C000C4CF809151048F7780935104F8CF61E0BE
:1003D0008AE071DF61E08BE06EDF61E08CE06BDF73
:1003E00061E085E068DF61E086E065DF61E087E08D
:1003F00062CFCF9390911B3880911C38981761F190
:100400008DE098E3F7DEC82F823529F41092623828
:1004100010926338EFCFDBDFC43459F024F4C234D8
:10042000A9F0D5DFE7CFC73459F0CF34D1F7CFDF0C
:10043000F8CF60E08AE03FDF60E085E03CDFDACFC4
:1004400060E08BE038DF60E086E0F8CF60E08CE0D1
:1004500032DF60E087E0F2CFCF9108958C5F90911A
:100460000006992371F08093060681E080930806C8
:1004700080910B0680FFFCCF8091100690911106B1
:10048000089589EF92E8089590E0FC01EC58F04758
:1004900020812F3F99F0FC01EE59F047E08130E2D6
:1004A000E39FF0011124FC5F2183805B9047DC0116
:1004B0008C91E80FF11D8089877F808B08958F9341
:1004C00081E080938D0A8FB78F93EF93FF93E0E9DC
:1004D000F8E39F9368948FEF0DC0E8948481958131
:1004E000805D9C4F84839583885E934080F08483F5
:1004F00095838FEF9081981B919390819F4F91935B
:1005000090819F4F919390819F4F919336F39F914C
:10051000FF91EF918F918FBF8F9118951F920F923E
:100520000FB60F9211241F932F933F934F935F9316
:100530006F937F938F939F93AF93BF93CF93DF93EB
:10054000EF93FF93C5E1D8E3E881F981838586FFC6
:1005500056C080FF41C0158581FF38C08E81882339
:1005600059F080910C3880935000EB85FC853097D2
:1005700019F08E8190E009951C831D821886E9850B
:10058000FA85309709F009958D81882319F183E068
:100590009091500090930C38917090935000E881A6
:1005A000F9818287FF91EF91DF91CF91BF91AF9158
:1005B0009F918F917F916F915F914F913F912F917B
:1005C0001F910F900FBE0F901F9018951C831E82D5
:1005D0001F82DDCF86E0DCCF80910C388093500005
:1005E000EB85FC85309729F08E81882311F090E00F
:1005F00009951E821D821F82188682E0D0CF87FF58
:100600002FC081FF1EC0887139F08A8183FF04C02A
:100610001D82877F8A83F1CF8B818F5F8B838A8155
:1006200088608A83A8858D81A81738F7AC0FBD2F05
:10063000B11D1D968C91858788858F5F888783E0A3
:10064000AECF8585EE81E03258F4EC0FFD2FF11D21
:1006500085A78E818F5F8E83803288F386E09FCF5F
:1006600080E09DCF88ED90E084BF90936100E0E052
:10067000F6E083E582838DE0858380E2838381E0F9
:100680008083109202028093030A9EEF9093260AC1
:100690009093270A9BE09093000AE0E8FAE02DEFA0
:1006A00031E026A737A7118290E89283848781E101
:1006B000808378948AE491E080931E3890931F3869
:1006C0008091173881FD17C082FD15C0809101020D
:1006D00084FF4AC186E080930604809117388460C5
:1006E00080931738E0911538F09116388EE18487A1
:1006F000168681EE818789EF91E080932038909370
:1007000021388AE0C1DE8BE0BFDE8CE0BDDE85E013
:10071000BBDE86E0B9DE87E0B7DE61E08AE0CBDDF4
:1007200060E08BE0C8DD61E08CE0C5DD61E085E084
:10073000C2DD60E086E0BFDD61E087E0BCDD82E035
:100740008DDE9250809300389093013883E086DEEE
:10075000EC016091003870910138072E000C880B75
:10076000990BA5D26B017C01BE017250072E000CC3
:10077000880B990B9CD2A7019601ABD120E030E009
:1007800044E353E44CD320ED3FE049E450E4F4D19A
:1007900020E030E04AE754E442D320E030E044EB8C
:1007A00053E4EAD120E030E04AEF53E41FD14CD2C9
:1007B000609366387093673810926238109263388D
:1007C00050E9652E58E3752E08EE13E061E08AE0EB
:1007D00072DD61E08AE06FDD61E08CE06CDD61E09C
:1007E00087E069DD60E08AE066DD60E08AE063DD85
:1007F000AADC7B0144EF842E99249394A12CB12C84
:10080000A2DC6E197F09683E734008F0B1C0811404
:100810009104A104B104A1F72CE7E22E28E3F22E03
:1008200038E6C32E38E3D32E82E018DE9250F7016B
:10083000819391937F0183E011DE9250F6018193C1
:1008400091936F0183EF91E00197F1F700C00000F1
:100850006E147F0449F78CE798E35ADC88E698E346
:1008600057DC6091843870918538809186389091FA
:100870008738680F791F77FF02C06F5F7F4F7595CC
:1008800067956093003870930138072E000C880B31
:10089000990B0DD26B017C016091703870917138A9
:1008A0008091723890917338680F791F77FF02C07A
:1008B0006F5F7F4F75956795072E000C880B990B1E
:1008C000F6D1A701960105D120E030E044E353E4DE
:1008D000A6D220ED3FE049E450E44ED120E030E0E4
:1008E0004AE754E49CD220E030E044EB53E444D1A6
:1008F00020E030E04AEF53E479D0A6D1AB01E0919B
:100900006638F0916738CB018E1B9F0B20916438BD
:10091000309165384217530724F44093643850935C
:1009200065382091623830916338DC0197FF04C04C
:10093000AA27BB27A81BB90BA53FB14074F0A09113
:100940006438B091653897FF23C0C8018E1B9F0B98
:10095000FA01EA1BFB0B8E0F9F1F820F931F8093E0
:1009600062389093633821C083E080932604B5CE2B
:1009700081149104A104B10409F44ECF81E0881AD6
:100980009108A108B10898E1E91A9CEFF90A38CF5B
:10099000EA1BFB0BCA01885E93408E0F9F1F281B2A
:1009A000390B209362383093633840936638509304
:1009B0006738E3EFF1E03197F1F700C0000006CFB0
:1009C000EDE0F8E31282138288EE93E0A0E0B0E05D
:1009D00084839583A683B78380E39FE88083918394
:1009E00080E198E08087918708955058BB27AA2717
:1009F0000ED0D4C1C5D130F0CAD120F031F49F3F20
:100A000011F41EF495C10EF4E095E7FB8BC1E92FBC
:100A1000D6D180F3BA17620773078407950718F0D9
:100A200071F49EF5EEC10EF4E0950B2EBA2FA02DB9
:100A30000B01B90190010C01CA01A0011124FF278B
:100A4000591B99F0593F50F4503E68F11A16F04086
:100A5000A22F232F342F4427585FF3CF4695379585
:100A60002795A795F0405395C9F77EF41F16BA0B4A
:100A7000620B730B840BBAF09150A1F0FF0FBB1FF8
:100A8000661F771F881FC2F70EC0BA0F621F731F41
:100A9000841F48F4879577956795B795F7959E3F9E
:100AA00008F0B3CF9395880F08F09927EE0F97952C
:100AB0008795089565D158F080E891E009F49EEF9C
:100AC00066D128F040E851E059F45EEF09C030C12A
:100AD00098C1E92FE07873D168F3092E052AC1F394
:100AE000261737074807590738F00E2E07F8E02574
:100AF00069F0E025E0640AC0EF6307F8009407FAA4
:100B0000DB01B9019D01DC01CA01AD01EF9343D0C6
:100B100045D10AD05F91552331F02BED3FE049E4F8
:100B200050FD49EC63CF0895DF93DD27B92FBF77E0
:100B300040E85FE31616170648075B0710F4D92F45
:100B400067D19F938F937F936F93CCD1ECE7F0E0C5
:100B5000F2D024D12F913F914F915F916CD1DD2341
:100B600049F09058A2EA2AED3FE049EC5FE3D078E3
:100B70005D274DDFDF9112C10CD010C108D140F0CC
:100B8000FFD030F021F45F3F19F0CCC051113AC1D1
:100B9000CFC015D198F39923C9F35523B1F3951B11
:100BA000550BBB27AA2762177307840738F09F5F8E
:100BB0005F4F220F331F441FAA1FA9F333D00E2EFD
:100BC0003AF0E0E830D091505040E695001CCAF76A
:100BD00029D0FE2F27D0660F771F881FBB1F26172F
:100BE00037074807AB07B0E809F0BB0B802DBF0102
:100BF000FF2793585F4F2AF09E3F510568F092C03F
:100C000001C15F3FECF3983EDCF3869577956795DD
:100C1000B795F7959F5FC9F7880F911D96958795B2
:100C200097F90895E1E0660F771F881FBB1F6217D1
:100C300073078407BA0720F0621B730B840BBA0B8F
:100C4000EE1F88F7E095089504D06894B111DAC0DA
:100C50000895BDD088F09F5790F0B92F9927B751CC
:100C6000A0F0D1F0660F771F881F991F1AF0BA9570
:100C7000C9F712C0B13081F0C4D0B1E00895C1C04D
:100C8000672F782F8827B85F39F0B93FCCF3869566
:100C900077956795B395D9F73EF4909580957095C3
:100CA00061957F4F8F4F9F4F0895E89409C097FB40
:100CB0003EF490958095709561957F4F8F4F9F4F33
:100CC0009923A9F0F92F96E9BB279395F695879577
:100CD00077956795B795F111F8CFFAF4BB0F11F43A
:100CE00060FF1BC06F5F7F4F8F4F9F4F16C08823E1
:100CF00011F096E911C0772321F09EE8872F762F17
:100D000005C0662371F096E8862F70E060E02AF057
:100D10009A95660F771F881FDAF7880F9695879543
:100D200097F9089597F99F6780E870E060E008956B
:100D30009FEF80EC0895DF93CF931F930F93FF9263
:100D4000EF92DF927B018C01689405C0DA2EEF01EF
:100D500072D0FE01E894A591259135914591559168
:100D6000AEF3EF0154DEFE019701A801DA9479F7A2
:100D7000DF90EF90FF900F911F91CF91DF91089539
:100D800000240A941616170618060906089500246A
:100D90000A9412161306140605060895092E0394E4
:100DA000000C11F4882352F0BB0F40F4BF2B11F458
:100DB00060FF04C06F5F7F4F8F4F9F4F089557FDB7
:100DC0009058440F551F59F05F3F71F04795880FB9
:100DD00097FB991F61F09F3F79F087950895121650
:100DE00013061406551FF2CF4695F1DF08C01616FC
:100DF00017061806991FF1CF8695710561050894AD
:100E00000895E894BB2766277727CB0197F90895C3
:100E10009B01AC0160E070E080E89FE3ADCE0BD0B9
:100E2000BDCFAEDF28F0B3DF18F0952309F07ACFFD
:100E30007FCF1124E7CFC3DFA0F3959FD1F3950FA8
:100E400050E0551F629FF001729FBB27F00DB11D4E
:100E5000639FAA27F00DB11DAA1F649F6627B00DDE
:100E6000A11D661F829F2227B00DA11D621F739FC7
:100E7000B00DA11D621F839FA00D611D221F749FD5
:100E80003327A00D611D231F849F600D211D822F1C
:100E9000762F6A2F11249F5750408AF0E1F0882363
:100EA0004AF0EE0FFF1FBB1F661F771F881F915070
:100EB0005040A9F79E3F510570F034CFA3CF5F3F5C
:100EC000ECF3983EDCF3869577956795B795F795A3
:100ED000E7959F5FC1F7FE2B880F911D969587952B
:100EE00097F908959B01AC019ACF0FD0A59F900D63
:100EF000B49F900DA49F800D911D11240895EE0FB5
:100F0000FF1F0590F491E02D0994A29FB001B39FBB
:100F1000C001A39F700D811D1124911DB29F700D02
:0C0F2000811D1124911D0895F894FFCF4D
:100F2C0000000000120124014701DE000C01FA0050
:100F3C00E60010108000000000101010404000006F
:100F4C00000010000405060705040302010000015F
:100F5C000203010203000000000001010101010174
:100F6C000202020200000000102040802010080441
:0A0F7C00020101020408020408014A
:020F8600010068
:00000001FF
