:100000000C9467010C9484010C9484010C94840179
:100010000C9484010C9484010C9484010C9484014C
:100020000C9484010C9484010C9484010C9484013C
:100030000C9484010C9484010C9484010C9484012C
:100040000C9484010C9484010C9484010C9484011C
:100050000C9484010C9484010C9484010C9484010C
:100060000C9484010C94840120676F72504D564E9D
:100070000000891112239B322446AD573665BF74A8
:10008000488CC19D5AAFD3BE6CCAE5DB7EE9F7F858
:100090008110080193331A22A5562C47B7753E6488
:1000A000C99C408DDBBF52AEEDDA64CBFFF976E838
:1000B00002218B30100299132667AF763444BD5568
:1000C0004AADC3BC588ED19F6EEBE7FA7CC8F5D918
:1000D00083310A2091121803A7772E66B5543C4548
:1000E000CBBD42ACD99E508FEFFB66EAFDD874C9F8
:1000F00004428D5316619F702004A9153227BB3628
:100100004CCEC5DF5EEDD7FC6888E1997AABF3BAD7
:1001100085520C4397711E60A1142805B3373A2607
:10012000CDDE44CFDFFD56ECE9986089FBBB72AAB7
:1001300006638F7214409D512225AB343006B917E7
:100140004EEFC7FE5CCCD5DD6AA9E3B8788AF19B97
:1001500087730E6295501C41A3352A24B1163807C7
:10016000CFFF46EEDDDC54CDEBB962A8F99A708B77
:10017000088481951AA793B62CC2A5D33EE1B7F0A7
:100180004008C919522BDB3A644EED5F766DFF7C57
:10019000899400859BB712A6ADD224C3BFF136E087
:1001A000C1184809D33B5A2AE55E6C4FF77D7E6C37
:1001B0000AA583B4188691972EE3A7F23CC0B5D167
:1001C0004229CB38500AD91B666FEF7E744CFD5D17
:1001D0008BB502A499961087AFF326E2BDD034C147
:1001E000C3394A28D11A580BE77F6E6EF55C7C4DF7
:1001F0000CC685D71EE597F42880A1913AA3B3B227
:10020000444ACD5B5669DF78600CE91D722FFB3ED6
:100210008DD604C79FF516E4A9902081BBB332A206
:10022000C55A4C4BD7795E68E11C680DF33F7A2EB6
:100230000EE787F61CC495D52AA1A3B03882B193E6
:10024000466BCF7A5448DD59622DEB3C700EF91F96
:100250008FF706E69DD414C5ABB122A0B9923083C6
:10026000C77B4E6AD5585C49E33D6A2CF11E780F76
:1002700086010100060101000601000000000000E7
:100280004A544147494345206D6B494900657361B4
:1002900072454D564E4003A001CF00670033002247
:1002A0000010008A000C000800030001000F000786
:1002B00000030001000C0009000700060004000311
:1002C00000020002000100000000000000001124F4
:1002D0001FBECFEFD8E0DEBFCDBF11E0A0E0B1E0A0
:1002E000EEE8FFE002C005900D92A230B107D9F709
:1002F00023E0A2E0B1E001C01D92AB3CB207E1F700
:100300000E9430040C94C5070C940000E9E0F1E071
:1003100022E030E03383228395EA96838783089531
:10032000569A0BB038E724E22A95F1F75E9801F06F
:1003300025E12A95F1F780FB06F88795304100000A
:1003400087F90BB8A8F727E12A95F1F730FB06F8F3
:100350000BB828E12A95F1F75E9A2CE02A95F1F77F
:100360005698089556985E981092850010928400D1
:10037000A1E8B0E084E08C93E6E3F0E080E820813F
:10038000247079F44E99FBCF2EE02A95F1F726E1FF
:100390002150F1F74E9908948795C8F720E32A95E4
:1003A000F1F75E9A1C92089585E50E9490018BE812
:1003B0000E9490010C94B20185E50E94900184E0B6
:1003C0000E94900182E00E94900180E10E949001D1
:1003D0000C94B2018627E82FF0E0EE0FFF1FE059E2
:1003E000FF4F25913491872F8227932F0895CF9324
:1003F000C82F85E50E94900184E60E9490018C2F11
:100400000E949001CF910C94B201CF9385E50E9498
:10041000900189E20E9490010E94B201C82F0E94BF
:10042000B201982F8C2FCF9108951F93CF93DF9314
:10043000162FD72FC82F85E50E9490018AE60E94CB
:100440009001812F0E9490018D2F0E9490018C2F8E
:100450000E949001DF91CF911F910C94B201CF9334
:10046000DF93D82FC92F85E50E94900189E60E946D
:1004700090018D2F0E9490018C2F0E949001DF919E
:10048000CF910C94B2010F931F93CF93DF938B0105
:10049000D82FC42F85E50E94900188E40E94900126
:1004A000802F0E949001812F0E9490018D2F0E9429
:1004B00090010E94B2018C2F0E949001DF91CF9198
:1004C0001F910F910C94B2011F93CF93DF93182FBC
:1004D000D92FC62F85E50E94900184E40E949001E7
:1004E000812F0E9490018D2F0E9490010E94B201E5
:1004F0008C2F0E949001DF91CF911F910C94B2013B
:10050000CF93C82F85E50E94900180EA0E94900158
:100510008C2FCF910C949001CF93DF93D82FC62FBF
:1005200085E50E94900180EC8D0F0E9490018C2F38
:10053000DF91CF910C949001CF93DF9369E588E030
:1005400090E00E948C0260E088E090E00E948C02C3
:10055000C0E0D6E00E94D4018E7039F4C23029F098
:10056000B29BF8CFD6BBCF5FF5CF81E0C23008F0A9
:1005700080E0DF91CF910895EF92FF921F93CF9388
:10058000DF93D82FC62F1FEF180F0E9405027C01A2
:100590000E94DC018370E1F7C7010E942F026EE028
:1005A00082E090E00E948C02812F0E948002EC2F5A
:1005B000F0E0E75FFE4F168185E50E94900184E63A
:1005C0000E949001812F0E949001DC0FCF5FCD1718
:1005D00041F0EC2FF0E0E75FFE4F86810E94900132
:1005E000F5CF66E082E090E00E948C028C2FDF91D4
:1005F000CF911F91FF90EF9008950E94DC018370CE
:10060000E1F70895482F60E070E180E090E00C94FD
:10061000430285E50E94900188E00E94900182E0FB
:100620000E94900180E10E94900180E00E94900170
:100630000E94B201837069F708950F931F93CF93BF
:100640008C0185E50E94900180EE0E949001C8E037
:10065000F80184910E9490010F5F1F4FC150C1F7B4
:10066000CF911F910F910895E9E0F1E021E030E092
:10067000338322838683089564E083E090E00E94C0
:100680008C02809108018E7F8093080180E890E0C1
:100690000C9434030E94D4018F7E883031F082386C
:1006A000B1F42D988BEA90E00DC08091000182306A
:1006B00059F40E9409030E949C022D98882391F30B
:1006C00080E890E00C9434030E94FD02F4CF81E0B6
:1006D0000C948601CF930E94D401C82FCF7EC132E3
:1006E00049F020F4C83001F18C2F13C0C23811F04A
:1006F000C23AD1F70E949C02811105C08BEA90E0BA
:10070000CF910C9434030E94D40180FF05C08C2F3C
:100710008160CF910C94860188E690E00E941D03D1
:100720000E949C02882351F380910001813049F49A
:1007300064E080E090E10E9464022D9A80E890E0FD
:10074000DFCF0E94090340E062E070E180E090E0CA
:100750000E94430281E00E940203EFCF10928500C5
:100760001092840084E0809381008091C00086FD17
:1007700002C0B19BFACF10928100089510928500BB
:100780001092840084E0809381008091C00087FDF6
:1007900002C0B19BFACF109281008091C6000895EB
:1007A0009091C00095FFFCCF9091C0009064909311
:1007B000C0008093C60008950F931F93CF93DF93DB
:1007C0008BE10E94D0036FEF7FEF0E94EA01EC0102
:1007D00009E011E0F80181918F010E94D003BE0170
:1007E0000E94EA01EC01F1E00F301F0799F78EE05B
:1007F0000E94D003BE010E94EA018C01C9E0D1E051
:10080000CE0189509140219620910B0130910C012D
:100810008217930740F48D810E94D003B8010E9493
:10082000EA018C01EDCF802F0E94D003812FDF9150
:10083000CF911F910F910C94D003569A5E9829E99D
:1008400089E191E0215080409040E1F700005E9AFC
:100850008FEF9FE10197F1F700C0000056980895CF
:1008600080E48BB9259A89E09DE390938900809379
:1008700088008AE698E190938B0080938A0082E05A
:100880008093C00087E690E09093C5008093C400F9
:1008900088E18093C10000E016E044E0E42EF12CF2
:1008A00053E0A52EB12C6FE0662E61E0762E0E94FB
:1008B000BE038B31E1F0B19BFACFB19BF8CFB19978
:1008C0002DC316BB80910F01883009F45BC108F07D
:1008D00065C0823009F428C108F04FC0882309F4AC
:1008E0003CC1813009F49AC080EA90E0DBC06FEF30
:1008F0007FEF8BE10E94EA01EC0139E0C32E31E089
:10090000D32E0E94BE03F60181936F01BE010E94A7
:10091000EA01EC016C147D04A1F780910B01909128
:100920000C018D3B924048F60E94BE038E3029F6A2
:10093000BE010E94EA016C01C9E0D1E0CE018950FC
:100940009140219620910B0130910C018217930761
:1009500040F40E94BE038D83B6010E94EA016C013F
:10096000EDCF0E94BE03C82F0E94BE03982F8C2F8C
:10097000C816D90609F0A1CFA2CF843009F450C11E
:1009800008F485C0853009F0AFCF0E94D4018830CB
:1009900009F4FDC081E00E9486015DC08F3009F43A
:1009A000D9C080F58B3009F4D5C08C3009F09CCFCC
:1009B0008091040290E0982F882720910302820FF3
:1009C000911D90930501809304018091050280930D
:1009D00003010E941D040E941D0466E082E090E075
:1009E0000E948C0280910401909105018F3F910536
:1009F00009F008F4CAC082E08093000180910801E8
:100A00008160BAC0853109F4BAC0843309F43AC2AE
:100A1000843109F069CF0E946A031DC082E080938F
:100A20000201F0920701E09206018DE190E09093BF
:100A30000C0180930B01E0E7F2E0AFE0B1E08491BC
:100A40008D93319691E0AC32B907C9F780910801D6
:100A5000826080930801B29B04C08BEA90E00E9400
:100A600034030E94DC030E94AE03E0910601F09182
:100A70000701EE0FFF1FED56FD4F85919491909366
:100A8000C5008093C400C0E016BB0C2F10CF80912E
:100A900010018330A9F148F48130B1F0823009F1BE
:100AA00081EA90E00E943403D6CF8530A1F18630F0
:100AB000B9F7B0920C01A0920B01F8E8F093100185
:100AC00023E12093110109C0B0920C01A0920B0107
:100AD00081E0809310018093110181E880930F01E0
:100AE000BACFE5E0F0E0F0930C01E0930B01109237
:100AF0001001109311011092120110931301EDCF08
:100B000082E090E090930C0180930B0180910201B0
:100B100080931001E2CF8091060122E030E0309313
:100B20000C0120930B01F4CF8091110190911001E1
:100B3000933071F0953009F0B3CF9FEF980F9C314F
:100B400008F0AECF90E0909307018093060102C0B9
:100B50008093020180E890E0A5CFF0920701E09237
:100B600006018091080180FF04C00E944A030E9490
:100B70003C03809108018D7F80930801EBCF0E9498
:100B80004A0369CF0E943C0366CF81E035CFC09114
:100B90001101D09112018091000102E0813009F031
:100BA00003E085E50E94900187E6800F0E94900196
:100BB000809115010E949001809116010E94900180
:100BC000033021F4809117010E9490010E94B2012C
:100BD0008C2F81500E94800285E50E94900184E262
:100BE0000E9490010E94B20180931001B1E18B2E0E
:100BF000B1E09B2E02E0C02ED12CCC15DD0548F0D3
:100C00000E94B201F40181934F01FFEFCF1ADF0A76
:100C1000F4CF2196D0930C01C0930B0182E85ECFF4
:100C20000E94D401883009F0B5CE80911001C091A6
:100C30001101D09112015090000121E052127AC0AE
:100C4000D09015010091160190E4980F4090040196
:100C5000923068F040900301843B08F045C0823B2D
:100C600008F049C0823209F043C0A3E05A2E8D2D0E
:100C7000902F0E942F02D1948FEF840DD822DC1682
:100C80001D0611F008F0DC2E0AE0DD2091F06AE08C
:100C90008D2D0E94BC02082FCD19D1090E9405029A
:100CA0006C01652D80E090E10E946402C6010E9403
:100CB0002F02C42CD12C209709F44CCF602FCC15D7
:100CC000DD0588F1842D0E94BC02082FCC19DD09B6
:100CD0000E9405024C01652D80E090E10E946402B3
:100CE000C4010E942F02E7CF845C823008F4BDCF9C
:100CF00082EA90E0D7CEC091190186E090E10E948F
:100D00002F028C2F0E94F70180E00E94F7018D2DA9
:100D10000E94F701802F0E94F70167E080E090E1D8
:100D20000E94640217CF8C2F0E94BC02082FD0E0D3
:100D3000C0E0CECF823C08F04EC0803C08F051C0ED
:100D4000823221F0A8F2825B823090F603E120909B
:100D50001701312C512C412C210133242224809164
:100D60001501282A8091160190E0982F8827B0E07D
:100D7000A0E0282A392A4A2A5B2A0E94090381E036
:100D80000E940203802F0E94020340911901C1308A
:100D9000D10509F4BEC0C430D10510F0023019F1FC
:100DA000802F0E940203C201B1010E9415028C2F04
:100DB00081500E948002809119010E94F7010C2F3E
:100DC000CAE1D1E0015009F4C5CE89910E94900199
:100DD0000E94B201F7CF843C09F4B8CF853C09F0FA
:100DE00087CF02E0B4CFCE0196958795082F99243E
:100DF0009A94980EC201B1010E9415026EE082E041
:100E000090E00E948C02892D0E948002D0901A01ED
:100E1000C090190185E50E94900185E60E9490012D
:100E20008C2D0E9490018D2D0E94900179E0C72E9B
:100E300071E0D72E015082E0C80ED11C002349F08A
:100E4000F60180890E949001F60181890E9490013B
:100E5000F1CFE92DF0E03696EE0FFF1FC0FF0CC07A
:100E6000E75FFE4FC68185E50E94900184E60E94FF
:100E700090018C2F0E94900166E082E090E00E9439
:100E80008C0268CE20911001263078F4243098F43A
:100E900021112ACD8DE892E00E941D030E949C0240
:100EA0008111B9CD8BEA90E0FDCD263009F452CE08
:100EB000273009F019CD20901301312C512C412CF1
:100EC00021013324222480911101282A80911201CA
:100ED00090E0982F8827B0E0A0E0282A392A4A2AF3
:100EE0005B2A80910001813059F4273009F432CE19
:100EF0000E94FD026FEFC1010E94640262E00ECF0A
:100F00000E94090381E00E94020388E00E9402031C
:100F10004FEFC201B1010E9443021CCE8091080133
:100F2000C02F81FFB1CDC1E0C00F0430B8F0F09206
:100F30000701E0920601EBE9F2E02591349130934C
:100F4000C5002093C400982F9D7F9093080180FFD7
:100F50009BCD0E944A030E943C0396CD80EA90E01C
:100F60000E9434030E94DC030E94AE03E09106015C
:100F7000F0910701EE0FFF1FED56FD4F8591949103
:0E0F80009093C5008093C4007FCDF894FFCFFE
:020F8E00010060
:00000001FF
